{
  "_format": "hh-sol-artifact-1",
  "contractName": "TamagoSwap",
  "sourceName": "contracts/TamagoSwap.sol",
  "abi": [
    {
      "inputs": [
        {
          "internalType": "uint128",
          "name": "initalAppFee",
          "type": "uint128"
        },
        {
          "internalType": "address",
          "name": "contractOwnerAddress",
          "type": "address"
        }
      ],
      "stateMutability": "nonpayable",
      "type": "constructor"
    },
    {
      "anonymous": false,
      "inputs": [
        {
          "indexed": false,
          "internalType": "uint128",
          "name": "fee",
          "type": "uint128"
        }
      ],
      "name": "AppFeeChanged",
      "type": "event"
    },
    {
      "anonymous": false,
      "inputs": [
        {
          "indexed": true,
          "internalType": "address",
          "name": "previousOwner",
          "type": "address"
        },
        {
          "indexed": true,
          "internalType": "address",
          "name": "newOwner",
          "type": "address"
        }
      ],
      "name": "OwnershipTransferred",
      "type": "event"
    },
    {
      "anonymous": false,
      "inputs": [
        {
          "indexed": true,
          "internalType": "address",
          "name": "canceledBy",
          "type": "address"
        },
        {
          "indexed": true,
          "internalType": "uint64",
          "name": "swapId",
          "type": "uint64"
        }
      ],
      "name": "SwapCanceled",
      "type": "event"
    },
    {
      "anonymous": false,
      "inputs": [
        {
          "indexed": true,
          "internalType": "address",
          "name": "from",
          "type": "address"
        },
        {
          "indexed": true,
          "internalType": "address",
          "name": "to",
          "type": "address"
        },
        {
          "indexed": true,
          "internalType": "uint64",
          "name": "swapId",
          "type": "uint64"
        }
      ],
      "name": "SwapExecuted",
      "type": "event"
    },
    {
      "anonymous": false,
      "inputs": [
        {
          "indexed": true,
          "internalType": "address",
          "name": "from",
          "type": "address"
        },
        {
          "indexed": true,
          "internalType": "address",
          "name": "to",
          "type": "address"
        },
        {
          "indexed": true,
          "internalType": "uint64",
          "name": "swapId",
          "type": "uint64"
        },
        {
          "indexed": false,
          "internalType": "uint128",
          "name": "etherValue",
          "type": "uint128"
        },
        {
          "indexed": false,
          "internalType": "address[]",
          "name": "nftAddresses",
          "type": "address[]"
        },
        {
          "indexed": false,
          "internalType": "uint256[]",
          "name": "nftIds",
          "type": "uint256[]"
        }
      ],
      "name": "SwapInitiated",
      "type": "event"
    },
    {
      "anonymous": false,
      "inputs": [
        {
          "indexed": true,
          "internalType": "address",
          "name": "from",
          "type": "address"
        },
        {
          "indexed": true,
          "internalType": "address",
          "name": "to",
          "type": "address"
        },
        {
          "indexed": true,
          "internalType": "uint64",
          "name": "swapId",
          "type": "uint64"
        },
        {
          "indexed": false,
          "internalType": "uint128",
          "name": "etherValue",
          "type": "uint128"
        },
        {
          "indexed": false,
          "internalType": "address[]",
          "name": "nftAddresses",
          "type": "address[]"
        },
        {
          "indexed": false,
          "internalType": "uint256[]",
          "name": "nftIds",
          "type": "uint256[]"
        }
      ],
      "name": "SwapProposed",
      "type": "event"
    },
    {
      "inputs": [
        {
          "internalType": "uint64",
          "name": "swapId",
          "type": "uint64"
        }
      ],
      "name": "acceptSwap",
      "outputs": [],
      "stateMutability": "nonpayable",
      "type": "function"
    },
    {
      "inputs": [
        {
          "internalType": "uint64",
          "name": "swapId",
          "type": "uint64"
        }
      ],
      "name": "cancelSwap",
      "outputs": [],
      "stateMutability": "nonpayable",
      "type": "function"
    },
    {
      "inputs": [],
      "name": "fee",
      "outputs": [
        {
          "internalType": "uint128",
          "name": "",
          "type": "uint128"
        }
      ],
      "stateMutability": "view",
      "type": "function"
    },
    {
      "inputs": [
        {
          "internalType": "uint64",
          "name": "swapId",
          "type": "uint64"
        },
        {
          "internalType": "address[]",
          "name": "nftAddresses",
          "type": "address[]"
        },
        {
          "internalType": "uint256[]",
          "name": "nftIds",
          "type": "uint256[]"
        }
      ],
      "name": "initiateSwap",
      "outputs": [],
      "stateMutability": "payable",
      "type": "function"
    },
    {
      "inputs": [
        {
          "internalType": "address",
          "name": "",
          "type": "address"
        },
        {
          "internalType": "address",
          "name": "",
          "type": "address"
        },
        {
          "internalType": "uint256",
          "name": "",
          "type": "uint256"
        },
        {
          "internalType": "bytes",
          "name": "",
          "type": "bytes"
        }
      ],
      "name": "onERC721Received",
      "outputs": [
        {
          "internalType": "bytes4",
          "name": "",
          "type": "bytes4"
        }
      ],
      "stateMutability": "nonpayable",
      "type": "function"
    },
    {
      "inputs": [],
      "name": "owner",
      "outputs": [
        {
          "internalType": "address",
          "name": "",
          "type": "address"
        }
      ],
      "stateMutability": "view",
      "type": "function"
    },
    {
      "inputs": [
        {
          "internalType": "address",
          "name": "secondUser",
          "type": "address"
        },
        {
          "internalType": "address[]",
          "name": "nftAddresses",
          "type": "address[]"
        },
        {
          "internalType": "uint256[]",
          "name": "nftIds",
          "type": "uint256[]"
        }
      ],
      "name": "proposeSwap",
      "outputs": [],
      "stateMutability": "payable",
      "type": "function"
    },
    {
      "inputs": [],
      "name": "renounceOwnership",
      "outputs": [],
      "stateMutability": "nonpayable",
      "type": "function"
    },
    {
      "inputs": [
        {
          "internalType": "uint128",
          "name": "newFee",
          "type": "uint128"
        }
      ],
      "name": "setAppFee",
      "outputs": [],
      "stateMutability": "nonpayable",
      "type": "function"
    },
    {
      "inputs": [
        {
          "internalType": "address",
          "name": "newOwner",
          "type": "address"
        }
      ],
      "name": "transferOwnership",
      "outputs": [],
      "stateMutability": "nonpayable",
      "type": "function"
    },
    {
      "inputs": [
        {
          "internalType": "address payable",
          "name": "recipient",
          "type": "address"
        }
      ],
      "name": "withdrawEther",
      "outputs": [],
      "stateMutability": "nonpayable",
      "type": "function"
    }
  ],
  "bytecode": "0x60806040523480156200001157600080fd5b5060405162003f2d38038062003f2d83398181016040528101906200003791906200036f565b620000576200004b620000ae60201b60201c565b620000b660201b60201c565b81600160106101000a8154816fffffffffffffffffffffffffffffffff02191690836fffffffffffffffffffffffffffffffff160217905550620000a6816200017a60201b620024fe1760201c565b5050620004d1565b600033905090565b60008060009054906101000a900473ffffffffffffffffffffffffffffffffffffffff169050816000806101000a81548173ffffffffffffffffffffffffffffffffffffffff021916908373ffffffffffffffffffffffffffffffffffffffff1602179055508173ffffffffffffffffffffffffffffffffffffffff168173ffffffffffffffffffffffffffffffffffffffff167f8be0079c531659141344cd1fd0a4f28419497f9722a3daafe3b4186f6b6457e060405160405180910390a35050565b6200018a620000ae60201b60201c565b73ffffffffffffffffffffffffffffffffffffffff16620001b06200028f60201b60201c565b73ffffffffffffffffffffffffffffffffffffffff161462000209576040517f08c379a0000000000000000000000000000000000000000000000000000000008152600401620002009062000417565b60405180910390fd5b600073ffffffffffffffffffffffffffffffffffffffff168173ffffffffffffffffffffffffffffffffffffffff16036200027b576040517f08c379a00000000000000000000000000000000000000000000000000000000081526004016200027290620004af565b60405180910390fd5b6200028c81620000b660201b60201c565b50565b60008060009054906101000a900473ffffffffffffffffffffffffffffffffffffffff16905090565b600080fd5b60006fffffffffffffffffffffffffffffffff82169050919050565b620002e481620002bd565b8114620002f057600080fd5b50565b6000815190506200030481620002d9565b92915050565b600073ffffffffffffffffffffffffffffffffffffffff82169050919050565b600062000337826200030a565b9050919050565b62000349816200032a565b81146200035557600080fd5b50565b60008151905062000369816200033e565b92915050565b60008060408385031215620003895762000388620002b8565b5b60006200039985828601620002f3565b9250506020620003ac8582860162000358565b9150509250929050565b600082825260208201905092915050565b7f4f776e61626c653a2063616c6c6572206973206e6f7420746865206f776e6572600082015250565b6000620003ff602083620003b6565b91506200040c82620003c7565b602082019050919050565b600060208201905081810360008301526200043281620003f0565b9050919050565b7f4f776e61626c653a206e6577206f776e657220697320746865207a65726f206160008201527f6464726573730000000000000000000000000000000000000000000000000000602082015250565b600062000497602683620003b6565b9150620004a48262000439565b604082019050919050565b60006020820190508181036000830152620004ca8162000488565b9050919050565b613a4c80620004e16000396000f3fe60806040526004361061009c5760003560e01c80637e3fe497116100645780637e3fe497146101635780638da5cb5b1461017f578063af933b57146101aa578063b7719a9c146101d3578063ddca3f43146101fc578063f2fde38b146102275761009c565b80630cce448d146100a1578063150b7a02146100ca57806355a36d5614610107578063715018a6146101235780637500f85c1461013a575b600080fd5b3480156100ad57600080fd5b506100c860048036038101906100c39190612939565b610250565b005b3480156100d657600080fd5b506100f160048036038101906100ec9190612b40565b610cbb565b6040516100fe9190612bfe565b60405180910390f35b610121600480360381019061011c9190612da4565b610ccf565b005b34801561012f57600080fd5b50610138611092565b005b34801561014657600080fd5b50610161600480360381019061015c9190612939565b61111a565b005b61017d60048036038101906101789190612e2f565b611ced565b005b34801561018b57600080fd5b50610194612254565b6040516101a19190612ec9565b60405180910390f35b3480156101b657600080fd5b506101d160048036038101906101cc9190612f22565b61227d565b005b3480156101df57600080fd5b506101fa60048036038101906101f59190612f97565b6123ed565b005b34801561020857600080fd5b506102116124dc565b60405161021e9190612fd3565b60405180910390f35b34801561023357600080fd5b5061024e60048036038101906102499190612fee565b6124fe565b005b3373ffffffffffffffffffffffffffffffffffffffff16600260008367ffffffffffffffff1667ffffffffffffffff16815260200190815260200160002060000160009054906101000a900473ffffffffffffffffffffffffffffffffffffffff1673ffffffffffffffffffffffffffffffffffffffff16148061034957503373ffffffffffffffffffffffffffffffffffffffff16600260008367ffffffffffffffff1667ffffffffffffffff16815260200190815260200160002060030160009054906101000a900473ffffffffffffffffffffffffffffffffffffffff1673ffffffffffffffffffffffffffffffffffffffff16145b610388576040517f08c379a000000000000000000000000000000000000000000000000000000000815260040161037f9061309e565b60405180910390fd5b61050430600260008467ffffffffffffffff1667ffffffffffffffff16815260200190815260200160002060000160009054906101000a900473ffffffffffffffffffffffffffffffffffffffff16600260008567ffffffffffffffff1667ffffffffffffffff16815260200190815260200160002060010180548060200260200160405190810160405280929190818152602001828054801561048157602002820191906000526020600020905b8160009054906101000a900473ffffffffffffffffffffffffffffffffffffffff1673ffffffffffffffffffffffffffffffffffffffff1681526020019060010190808311610437575b5050505050600260008667ffffffffffffffff1667ffffffffffffffff1681526020019081526020016000206002018054806020026020016040519081016040528092919081815260200182805480156104fa57602002820191906000526020600020905b8154815260200190600101908083116104e6575b50505050506125f5565b6000600260008367ffffffffffffffff1667ffffffffffffffff16815260200190815260200160002060040180549050146106b6576106b530600260008467ffffffffffffffff1667ffffffffffffffff16815260200190815260200160002060030160009054906101000a900473ffffffffffffffffffffffffffffffffffffffff16600260008567ffffffffffffffff1667ffffffffffffffff16815260200190815260200160002060040180548060200260200160405190810160405280929190818152602001828054801561063257602002820191906000526020600020905b8160009054906101000a900473ffffffffffffffffffffffffffffffffffffffff1673ffffffffffffffffffffffffffffffffffffffff16815260200190600101908083116105e8575b5050505050600260008667ffffffffffffffff1667ffffffffffffffff1681526020019081526020016000206005018054806020026020016040519081016040528092919081815260200182805480156106ab57602002820191906000526020600020905b815481526020019060010190808311610697575b50505050506125f5565b5b6000600260008367ffffffffffffffff1667ffffffffffffffff16815260200190815260200160002060060160009054906101000a90046fffffffffffffffffffffffffffffffff166fffffffffffffffffffffffffffffffff161461091157600260008267ffffffffffffffff1667ffffffffffffffff16815260200190815260200160002060060160009054906101000a90046fffffffffffffffffffffffffffffffff16600160008282829054906101000a90046fffffffffffffffffffffffffffffffff1661078991906130ed565b92506101000a8154816fffffffffffffffffffffffffffffffff02191690836fffffffffffffffffffffffffffffffff1602179055506000600260008367ffffffffffffffff1667ffffffffffffffff16815260200190815260200160002060060160009054906101000a90046fffffffffffffffffffffffffffffffff1690506000600260008467ffffffffffffffff1667ffffffffffffffff16815260200190815260200160002060060160006101000a8154816fffffffffffffffffffffffffffffffff02191690836fffffffffffffffffffffffffffffffff160217905550600260008367ffffffffffffffff1667ffffffffffffffff16815260200190815260200160002060000160009054906101000a900473ffffffffffffffffffffffffffffffffffffffff1673ffffffffffffffffffffffffffffffffffffffff166108fc826fffffffffffffffffffffffffffffffff169081150290604051600060405180830381858888f1935050505015801561090e573d6000803e3d6000fd5b50505b6000600260008367ffffffffffffffff1667ffffffffffffffff16815260200190815260200160002060060160109054906101000a90046fffffffffffffffffffffffffffffffff166fffffffffffffffffffffffffffffffff1614610b6c57600260008267ffffffffffffffff1667ffffffffffffffff16815260200190815260200160002060060160109054906101000a90046fffffffffffffffffffffffffffffffff16600160008282829054906101000a90046fffffffffffffffffffffffffffffffff166109e491906130ed565b92506101000a8154816fffffffffffffffffffffffffffffffff02191690836fffffffffffffffffffffffffffffffff1602179055506000600260008367ffffffffffffffff1667ffffffffffffffff16815260200190815260200160002060060160109054906101000a90046fffffffffffffffffffffffffffffffff1690506000600260008467ffffffffffffffff1667ffffffffffffffff16815260200190815260200160002060060160106101000a8154816fffffffffffffffffffffffffffffffff02191690836fffffffffffffffffffffffffffffffff160217905550600260008367ffffffffffffffff1667ffffffffffffffff16815260200190815260200160002060030160009054906101000a900473ffffffffffffffffffffffffffffffffffffffff1673ffffffffffffffffffffffffffffffffffffffff166108fc826fffffffffffffffffffffffffffffffff169081150290604051600060405180830381858888f19350505050158015610b69573d6000803e3d6000fd5b50505b8067ffffffffffffffff163373ffffffffffffffffffffffffffffffffffffffff167f54b9c72d790ad613d26b317d2d24e28dd1608f07ff121cb2d42ace3cbcd4eb0f60405160405180910390a3600260008267ffffffffffffffff1667ffffffffffffffff168152602001908152602001600020600080820160006101000a81549073ffffffffffffffffffffffffffffffffffffffff0219169055600182016000610c1991906127af565b600282016000610c2991906127d0565b6003820160006101000a81549073ffffffffffffffffffffffffffffffffffffffff0219169055600482016000610c6091906127af565b600582016000610c7091906127d0565b6006820160006101000a8154906fffffffffffffffffffffffffffffffff02191690556006820160106101000a8154906fffffffffffffffffffffffffffffffff0219169055505050565b600063150b7a0260e01b9050949350505050565b600160109054906101000a90046fffffffffffffffffffffffffffffffff166fffffffffffffffffffffffffffffffff16341015610d42576040517f08c379a0000000000000000000000000000000000000000000000000000000008152600401610d39906131b9565b60405180910390fd5b81818051825114610d88576040517f08c379a0000000000000000000000000000000000000000000000000000000008152600401610d7f9061324b565b60405180910390fd5b6001600060148282829054906101000a900467ffffffffffffffff16610dae919061326b565b92506101000a81548167ffffffffffffffff021916908367ffffffffffffffff160217905550610de0333086866125f5565b6000600260008060149054906101000a900467ffffffffffffffff1667ffffffffffffffff1667ffffffffffffffff1681526020019081526020016000209050338160000160006101000a81548173ffffffffffffffffffffffffffffffffffffffff021916908373ffffffffffffffffffffffffffffffffffffffff16021790555084816001019080519060200190610e7b9291906127f1565b5083816002019080519060200190610e9492919061287b565b506000600160109054906101000a90046fffffffffffffffffffffffffffffffff169050806fffffffffffffffffffffffffffffffff16341115610f9c578034610ede91906130ed565b8260060160006101000a8154816fffffffffffffffffffffffffffffffff02191690836fffffffffffffffffffffffffffffffff1602179055508160060160009054906101000a90046fffffffffffffffffffffffffffffffff16600160008282829054906101000a90046fffffffffffffffffffffffffffffffff16610f6591906132a9565b92506101000a8154816fffffffffffffffffffffffffffffffff02191690836fffffffffffffffffffffffffffffffff1602179055505b868260030160006101000a81548173ffffffffffffffffffffffffffffffffffffffff021916908373ffffffffffffffffffffffffffffffffffffffff160217905550600060149054906101000a900467ffffffffffffffff1667ffffffffffffffff168773ffffffffffffffffffffffffffffffffffffffff163373ffffffffffffffffffffffffffffffffffffffff167f47ab916bf7e1067c857bf17c72c33c4db59e95f2730e7283799f8a0b016aee078560060160009054906101000a90046fffffffffffffffffffffffffffffffff168a8a6040516110819392919061346b565b60405180910390a450505050505050565b61109a61266b565b73ffffffffffffffffffffffffffffffffffffffff166110b8612254565b73ffffffffffffffffffffffffffffffffffffffff161461110e576040517f08c379a0000000000000000000000000000000000000000000000000000000008152600401611105906134fc565b60405180910390fd5b6111186000612673565b565b80600260008267ffffffffffffffff1667ffffffffffffffff16815260200190815260200160002060000160009054906101000a900473ffffffffffffffffffffffffffffffffffffffff1673ffffffffffffffffffffffffffffffffffffffff163373ffffffffffffffffffffffffffffffffffffffff16146111d3576040517f08c379a00000000000000000000000000000000000000000000000000000000081526004016111ca9061358e565b60405180910390fd5b6000600260008467ffffffffffffffff1667ffffffffffffffff1681526020019081526020016000206004018054905014158061126857506000600260008467ffffffffffffffff1667ffffffffffffffff16815260200190815260200160002060060160109054906101000a90046fffffffffffffffffffffffffffffffff166fffffffffffffffffffffffffffffffff16115b801561130557506000600260008467ffffffffffffffff1667ffffffffffffffff1681526020019081526020016000206001018054905014158061130457506000600260008467ffffffffffffffff1667ffffffffffffffff16815260200190815260200160002060060160009054906101000a90046fffffffffffffffffffffffffffffffff166fffffffffffffffffffffffffffffffff16115b5b611344576040517f08c379a000000000000000000000000000000000000000000000000000000000815260040161133b90613620565b60405180910390fd5b6114c030600260008567ffffffffffffffff1667ffffffffffffffff16815260200190815260200160002060000160009054906101000a900473ffffffffffffffffffffffffffffffffffffffff16600260008667ffffffffffffffff1667ffffffffffffffff16815260200190815260200160002060040180548060200260200160405190810160405280929190818152602001828054801561143d57602002820191906000526020600020905b8160009054906101000a900473ffffffffffffffffffffffffffffffffffffffff1673ffffffffffffffffffffffffffffffffffffffff16815260200190600101908083116113f3575b5050505050600260008767ffffffffffffffff1667ffffffffffffffff1681526020019081526020016000206005018054806020026020016040519081016040528092919081815260200182805480156114b657602002820191906000526020600020905b8154815260200190600101908083116114a2575b50505050506125f5565b61163c30600260008567ffffffffffffffff1667ffffffffffffffff16815260200190815260200160002060030160009054906101000a900473ffffffffffffffffffffffffffffffffffffffff16600260008667ffffffffffffffff1667ffffffffffffffff1681526020019081526020016000206001018054806020026020016040519081016040528092919081815260200182805480156115b957602002820191906000526020600020905b8160009054906101000a900473ffffffffffffffffffffffffffffffffffffffff1673ffffffffffffffffffffffffffffffffffffffff168152602001906001019080831161156f575b5050505050600260008767ffffffffffffffff1667ffffffffffffffff16815260200190815260200160002060020180548060200260200160405190810160405280929190818152602001828054801561163257602002820191906000526020600020905b81548152602001906001019080831161161e575b50505050506125f5565b6000600260008467ffffffffffffffff1667ffffffffffffffff16815260200190815260200160002060060160009054906101000a90046fffffffffffffffffffffffffffffffff166fffffffffffffffffffffffffffffffff161461189757600260008367ffffffffffffffff1667ffffffffffffffff16815260200190815260200160002060060160009054906101000a90046fffffffffffffffffffffffffffffffff16600160008282829054906101000a90046fffffffffffffffffffffffffffffffff1661170f91906130ed565b92506101000a8154816fffffffffffffffffffffffffffffffff02191690836fffffffffffffffffffffffffffffffff1602179055506000600260008467ffffffffffffffff1667ffffffffffffffff16815260200190815260200160002060060160009054906101000a90046fffffffffffffffffffffffffffffffff1690506000600260008567ffffffffffffffff1667ffffffffffffffff16815260200190815260200160002060060160006101000a8154816fffffffffffffffffffffffffffffffff02191690836fffffffffffffffffffffffffffffffff160217905550600260008467ffffffffffffffff1667ffffffffffffffff16815260200190815260200160002060030160009054906101000a900473ffffffffffffffffffffffffffffffffffffffff1673ffffffffffffffffffffffffffffffffffffffff166108fc826fffffffffffffffffffffffffffffffff169081150290604051600060405180830381858888f19350505050158015611894573d6000803e3d6000fd5b50505b6000600260008467ffffffffffffffff1667ffffffffffffffff16815260200190815260200160002060060160109054906101000a90046fffffffffffffffffffffffffffffffff166fffffffffffffffffffffffffffffffff1614611af257600260008367ffffffffffffffff1667ffffffffffffffff16815260200190815260200160002060060160109054906101000a90046fffffffffffffffffffffffffffffffff16600160008282829054906101000a90046fffffffffffffffffffffffffffffffff1661196a91906130ed565b92506101000a8154816fffffffffffffffffffffffffffffffff02191690836fffffffffffffffffffffffffffffffff1602179055506000600260008467ffffffffffffffff1667ffffffffffffffff16815260200190815260200160002060060160109054906101000a90046fffffffffffffffffffffffffffffffff1690506000600260008567ffffffffffffffff1667ffffffffffffffff16815260200190815260200160002060060160106101000a8154816fffffffffffffffffffffffffffffffff02191690836fffffffffffffffffffffffffffffffff160217905550600260008467ffffffffffffffff1667ffffffffffffffff16815260200190815260200160002060000160009054906101000a900473ffffffffffffffffffffffffffffffffffffffff1673ffffffffffffffffffffffffffffffffffffffff166108fc826fffffffffffffffffffffffffffffffff169081150290604051600060405180830381858888f19350505050158015611aef573d6000803e3d6000fd5b50505b8167ffffffffffffffff16600260008467ffffffffffffffff1667ffffffffffffffff16815260200190815260200160002060030160009054906101000a900473ffffffffffffffffffffffffffffffffffffffff1673ffffffffffffffffffffffffffffffffffffffff16600260008567ffffffffffffffff1667ffffffffffffffff16815260200190815260200160002060000160009054906101000a900473ffffffffffffffffffffffffffffffffffffffff1673ffffffffffffffffffffffffffffffffffffffff167f8d1ef4e0ccd0f016857c236780af12f7aa46cb23459b4962f46e649e6a9c24f260405160405180910390a4600260008367ffffffffffffffff1667ffffffffffffffff168152602001908152602001600020600080820160006101000a81549073ffffffffffffffffffffffffffffffffffffffff0219169055600182016000611c4a91906127af565b600282016000611c5a91906127d0565b6003820160006101000a81549073ffffffffffffffffffffffffffffffffffffffff0219169055600482016000611c9191906127af565b600582016000611ca191906127d0565b6006820160006101000a8154906fffffffffffffffffffffffffffffffff02191690556006820160106101000a8154906fffffffffffffffffffffffffffffffff021916905550505050565b600160109054906101000a90046fffffffffffffffffffffffffffffffff166fffffffffffffffffffffffffffffffff16341015611d60576040517f08c379a0000000000000000000000000000000000000000000000000000000008152600401611d57906131b9565b60405180910390fd5b81818051825114611da6576040517f08c379a0000000000000000000000000000000000000000000000000000000008152600401611d9d9061324b565b60405180910390fd5b3373ffffffffffffffffffffffffffffffffffffffff16600260008767ffffffffffffffff1667ffffffffffffffff16815260200190815260200160002060030160009054906101000a900473ffffffffffffffffffffffffffffffffffffffff1673ffffffffffffffffffffffffffffffffffffffff1614611e5e576040517f08c379a0000000000000000000000000000000000000000000000000000000008152600401611e55906136b2565b60405180910390fd5b6000600260008767ffffffffffffffff1667ffffffffffffffff16815260200190815260200160002060060160109054906101000a90046fffffffffffffffffffffffffffffffff166fffffffffffffffffffffffffffffffff16148015611f2c57506000600260008767ffffffffffffffff1667ffffffffffffffff16815260200190815260200160002060040180549050148015611f2b57506000600260008767ffffffffffffffff1667ffffffffffffffff16815260200190815260200160002060050180549050145b5b611f6b576040517f08c379a0000000000000000000000000000000000000000000000000000000008152600401611f6290613744565b60405180910390fd5b611f77333086866125f5565b83600260008767ffffffffffffffff1667ffffffffffffffff1681526020019081526020016000206004019080519060200190611fb59291906127f1565b5082600260008767ffffffffffffffff1667ffffffffffffffff1681526020019081526020016000206005019080519060200190611ff492919061287b565b506000600160109054906101000a90046fffffffffffffffffffffffffffffffff169050806fffffffffffffffffffffffffffffffff1634111561214857803461203e91906130ed565b600260008867ffffffffffffffff1667ffffffffffffffff16815260200190815260200160002060060160106101000a8154816fffffffffffffffffffffffffffffffff02191690836fffffffffffffffffffffffffffffffff160217905550600260008767ffffffffffffffff1667ffffffffffffffff16815260200190815260200160002060060160109054906101000a90046fffffffffffffffffffffffffffffffff16600160008282829054906101000a90046fffffffffffffffffffffffffffffffff1661211191906132a9565b92506101000a8154816fffffffffffffffffffffffffffffffff02191690836fffffffffffffffffffffffffffffffff1602179055505b8567ffffffffffffffff16600260008867ffffffffffffffff1667ffffffffffffffff16815260200190815260200160002060000160009054906101000a900473ffffffffffffffffffffffffffffffffffffffff1673ffffffffffffffffffffffffffffffffffffffff163373ffffffffffffffffffffffffffffffffffffffff167f4e597ee0a0e4f52a7e43929928b9d21bd33282d3d7e7b2896cf4c0cd64c4029d600260008b67ffffffffffffffff1667ffffffffffffffff16815260200190815260200160002060060160109054906101000a90046fffffffffffffffffffffffffffffffff1689896040516122449392919061346b565b60405180910390a4505050505050565b60008060009054906101000a900473ffffffffffffffffffffffffffffffffffffffff16905090565b61228561266b565b73ffffffffffffffffffffffffffffffffffffffff166122a3612254565b73ffffffffffffffffffffffffffffffffffffffff16146122f9576040517f08c379a00000000000000000000000000000000000000000000000000000000081526004016122f0906134fc565b60405180910390fd5b600073ffffffffffffffffffffffffffffffffffffffff168173ffffffffffffffffffffffffffffffffffffffff1603612368576040517f08c379a000000000000000000000000000000000000000000000000000000000815260040161235f906137d6565b60405180910390fd5b8073ffffffffffffffffffffffffffffffffffffffff166108fc600160009054906101000a90046fffffffffffffffffffffffffffffffff166fffffffffffffffffffffffffffffffff16476123be91906137f6565b9081150290604051600060405180830381858888f193505050501580156123e9573d6000803e3d6000fd5b5050565b6123f561266b565b73ffffffffffffffffffffffffffffffffffffffff16612413612254565b73ffffffffffffffffffffffffffffffffffffffff1614612469576040517f08c379a0000000000000000000000000000000000000000000000000000000008152600401612460906134fc565b60405180910390fd5b80600160106101000a8154816fffffffffffffffffffffffffffffffff02191690836fffffffffffffffffffffffffffffffff1602179055507f220ace5bd7df3a0637bc16073257c1c74f8a207436c0c1a8cf098ff268d4078a816040516124d19190612fd3565b60405180910390a150565b600160109054906101000a90046fffffffffffffffffffffffffffffffff1681565b61250661266b565b73ffffffffffffffffffffffffffffffffffffffff16612524612254565b73ffffffffffffffffffffffffffffffffffffffff161461257a576040517f08c379a0000000000000000000000000000000000000000000000000000000008152600401612571906134fc565b60405180910390fd5b600073ffffffffffffffffffffffffffffffffffffffff168173ffffffffffffffffffffffffffffffffffffffff16036125e9576040517f08c379a00000000000000000000000000000000000000000000000000000000081526004016125e09061389c565b60405180910390fd5b6125f281612673565b50565b60005b8151811015612664576126518585858481518110612619576126186138bc565b5b6020026020010151858581518110612634576126336138bc565b5b602002602001015160405180602001604052806000815250612737565b808061265c906138eb565b9150506125f8565b5050505050565b600033905090565b60008060009054906101000a900473ffffffffffffffffffffffffffffffffffffffff169050816000806101000a81548173ffffffffffffffffffffffffffffffffffffffff021916908373ffffffffffffffffffffffffffffffffffffffff1602179055508173ffffffffffffffffffffffffffffffffffffffff168173ffffffffffffffffffffffffffffffffffffffff167f8be0079c531659141344cd1fd0a4f28419497f9722a3daafe3b4186f6b6457e060405160405180910390a35050565b8273ffffffffffffffffffffffffffffffffffffffff1663b88d4fde868685856040518563ffffffff1660e01b815260040161277694939291906139ca565b600060405180830381600087803b15801561279057600080fd5b505af11580156127a4573d6000803e3d6000fd5b505050505050505050565b50805460008255906000526020600020908101906127cd91906128c8565b50565b50805460008255906000526020600020908101906127ee91906128c8565b50565b82805482825590600052602060002090810192821561286a579160200282015b828111156128695782518260006101000a81548173ffffffffffffffffffffffffffffffffffffffff021916908373ffffffffffffffffffffffffffffffffffffffff16021790555091602001919060010190612811565b5b50905061287791906128c8565b5090565b8280548282559060005260206000209081019282156128b7579160200282015b828111156128b657825182559160200191906001019061289b565b5b5090506128c491906128c8565b5090565b5b808211156128e15760008160009055506001016128c9565b5090565b6000604051905090565b600080fd5b600080fd5b600067ffffffffffffffff82169050919050565b612916816128f9565b811461292157600080fd5b50565b6000813590506129338161290d565b92915050565b60006020828403121561294f5761294e6128ef565b5b600061295d84828501612924565b91505092915050565b600073ffffffffffffffffffffffffffffffffffffffff82169050919050565b600061299182612966565b9050919050565b6129a181612986565b81146129ac57600080fd5b50565b6000813590506129be81612998565b92915050565b6000819050919050565b6129d7816129c4565b81146129e257600080fd5b50565b6000813590506129f4816129ce565b92915050565b600080fd5b600080fd5b6000601f19601f8301169050919050565b7f4e487b7100000000000000000000000000000000000000000000000000000000600052604160045260246000fd5b612a4d82612a04565b810181811067ffffffffffffffff82111715612a6c57612a6b612a15565b5b80604052505050565b6000612a7f6128e5565b9050612a8b8282612a44565b919050565b600067ffffffffffffffff821115612aab57612aaa612a15565b5b612ab482612a04565b9050602081019050919050565b82818337600083830152505050565b6000612ae3612ade84612a90565b612a75565b905082815260208101848484011115612aff57612afe6129ff565b5b612b0a848285612ac1565b509392505050565b600082601f830112612b2757612b266129fa565b5b8135612b37848260208601612ad0565b91505092915050565b60008060008060808587031215612b5a57612b596128ef565b5b6000612b68878288016129af565b9450506020612b79878288016129af565b9350506040612b8a878288016129e5565b925050606085013567ffffffffffffffff811115612bab57612baa6128f4565b5b612bb787828801612b12565b91505092959194509250565b60007fffffffff0000000000000000000000000000000000000000000000000000000082169050919050565b612bf881612bc3565b82525050565b6000602082019050612c136000830184612bef565b92915050565b600067ffffffffffffffff821115612c3457612c33612a15565b5b602082029050602081019050919050565b600080fd5b6000612c5d612c5884612c19565b612a75565b90508083825260208201905060208402830185811115612c8057612c7f612c45565b5b835b81811015612ca95780612c9588826129af565b845260208401935050602081019050612c82565b5050509392505050565b600082601f830112612cc857612cc76129fa565b5b8135612cd8848260208601612c4a565b91505092915050565b600067ffffffffffffffff821115612cfc57612cfb612a15565b5b602082029050602081019050919050565b6000612d20612d1b84612ce1565b612a75565b90508083825260208201905060208402830185811115612d4357612d42612c45565b5b835b81811015612d6c5780612d5888826129e5565b845260208401935050602081019050612d45565b5050509392505050565b600082601f830112612d8b57612d8a6129fa565b5b8135612d9b848260208601612d0d565b91505092915050565b600080600060608486031215612dbd57612dbc6128ef565b5b6000612dcb868287016129af565b935050602084013567ffffffffffffffff811115612dec57612deb6128f4565b5b612df886828701612cb3565b925050604084013567ffffffffffffffff811115612e1957612e186128f4565b5b612e2586828701612d76565b9150509250925092565b600080600060608486031215612e4857612e476128ef565b5b6000612e5686828701612924565b935050602084013567ffffffffffffffff811115612e7757612e766128f4565b5b612e8386828701612cb3565b925050604084013567ffffffffffffffff811115612ea457612ea36128f4565b5b612eb086828701612d76565b9150509250925092565b612ec381612986565b82525050565b6000602082019050612ede6000830184612eba565b92915050565b6000612eef82612966565b9050919050565b612eff81612ee4565b8114612f0a57600080fd5b50565b600081359050612f1c81612ef6565b92915050565b600060208284031215612f3857612f376128ef565b5b6000612f4684828501612f0d565b91505092915050565b60006fffffffffffffffffffffffffffffffff82169050919050565b612f7481612f4f565b8114612f7f57600080fd5b50565b600081359050612f9181612f6b565b92915050565b600060208284031215612fad57612fac6128ef565b5b6000612fbb84828501612f82565b91505092915050565b612fcd81612f4f565b82525050565b6000602082019050612fe86000830184612fc4565b92915050565b600060208284031215613004576130036128ef565b5b6000613012848285016129af565b91505092915050565b600082825260208201905092915050565b7f54616d61676f537761703a2043616e27742063616e63656c20737761702c206d60008201527f7573742062652073776170207061727469636970616e74000000000000000000602082015250565b600061308860378361301b565b91506130938261302c565b604082019050919050565b600060208201905081810360008301526130b78161307b565b9050919050565b7f4e487b7100000000000000000000000000000000000000000000000000000000600052601160045260246000fd5b60006130f882612f4f565b915061310383612f4f565b925082821015613116576131156130be565b5b828203905092915050565b7f54616d61676f537761703a2053656e742045544820616d6f756e74206e65656460008201527f7320746f206265206d6f7265206f7220657175616c206170706c69636174696f60208201527f6e20666565000000000000000000000000000000000000000000000000000000604082015250565b60006131a360458361301b565b91506131ae82613121565b606082019050919050565b600060208201905081810360008301526131d281613196565b9050919050565b7f54616d61676f537761703a204e465420616e642049442061727261797320686160008201527f766520746f2062652073616d65206c656e677468000000000000000000000000602082015250565b600061323560348361301b565b9150613240826131d9565b604082019050919050565b6000602082019050818103600083015261326481613228565b9050919050565b6000613276826128f9565b9150613281836128f9565b92508267ffffffffffffffff0382111561329e5761329d6130be565b5b828201905092915050565b60006132b482612f4f565b91506132bf83612f4f565b9250826fffffffffffffffffffffffffffffffff038211156132e4576132e36130be565b5b828201905092915050565b600081519050919050565b600082825260208201905092915050565b6000819050602082019050919050565b61332481612986565b82525050565b6000613336838361331b565b60208301905092915050565b6000602082019050919050565b600061335a826132ef565b61336481856132fa565b935061336f8361330b565b8060005b838110156133a0578151613387888261332a565b975061339283613342565b925050600181019050613373565b5085935050505092915050565b600081519050919050565b600082825260208201905092915050565b6000819050602082019050919050565b6133e2816129c4565b82525050565b60006133f483836133d9565b60208301905092915050565b6000602082019050919050565b6000613418826133ad565b61342281856133b8565b935061342d836133c9565b8060005b8381101561345e57815161344588826133e8565b975061345083613400565b925050600181019050613431565b5085935050505092915050565b60006060820190506134806000830186612fc4565b8181036020830152613492818561334f565b905081810360408301526134a6818461340d565b9050949350505050565b7f4f776e61626c653a2063616c6c6572206973206e6f7420746865206f776e6572600082015250565b60006134e660208361301b565b91506134f1826134b0565b602082019050919050565b60006020820190508181036000830152613515816134d9565b9050919050565b7f54616d61676f537761703a2063616c6c6572206973206e6f742073776170206960008201527f6e69746961746f72000000000000000000000000000000000000000000000000602082015250565b600061357860288361301b565b91506135838261351c565b604082019050919050565b600060208201905081810360008301526135a78161356b565b9050919050565b7f54616d61676f537761703a2043616e27742061636365707420737761702c206260008201527f6f7468207061727469636970616e7473206469646e277420616464204e465473602082015250565b600061360a60408361301b565b9150613615826135ae565b604082019050919050565b60006020820190508181036000830152613639816135fd565b9050919050565b7f54616d61676f537761703a2063616c6c6572206973206e6f742073776170207060008201527f6172746963697061746f72000000000000000000000000000000000000000000602082015250565b600061369c602b8361301b565b91506136a782613640565b604082019050919050565b600060208201905081810360008301526136cb8161368f565b9050919050565b7f54616d61676f537761703a207377617020616c726561647920696e697469617460008201527f6564000000000000000000000000000000000000000000000000000000000000602082015250565b600061372e60228361301b565b9150613739826136d2565b604082019050919050565b6000602082019050818103600083015261375d81613721565b9050919050565b7f537761704b6977693a207472616e7366657220746f20746865207a65726f206160008201527f6464726573730000000000000000000000000000000000000000000000000000602082015250565b60006137c060268361301b565b91506137cb82613764565b604082019050919050565b600060208201905081810360008301526137ef816137b3565b9050919050565b6000613801826129c4565b915061380c836129c4565b92508282101561381f5761381e6130be565b5b828203905092915050565b7f4f776e61626c653a206e6577206f776e657220697320746865207a65726f206160008201527f6464726573730000000000000000000000000000000000000000000000000000602082015250565b600061388660268361301b565b91506138918261382a565b604082019050919050565b600060208201905081810360008301526138b581613879565b9050919050565b7f4e487b7100000000000000000000000000000000000000000000000000000000600052603260045260246000fd5b60006138f6826129c4565b91507fffffffffffffffffffffffffffffffffffffffffffffffffffffffffffffffff8203613928576139276130be565b5b600182019050919050565b61393c816129c4565b82525050565b600081519050919050565b600082825260208201905092915050565b60005b8381101561397c578082015181840152602081019050613961565b8381111561398b576000848401525b50505050565b600061399c82613942565b6139a6818561394d565b93506139b681856020860161395e565b6139bf81612a04565b840191505092915050565b60006080820190506139df6000830187612eba565b6139ec6020830186612eba565b6139f96040830185613933565b8181036060830152613a0b8184613991565b90509594505050505056fea264697066735822122094f06357ec6bbbdf5d9a8a62c06d13f0adde311a145894a19780769c9c6a400a64736f6c634300080e0033",
  "linkReferences": {},
  "deployedLinkReferences": {}
}